{
  "contractName": "WorkshopRegister",
  "abi": [
    {
      "inputs": [
        {
          "name": "costInEther",
          "type": "uint256"
        }
      ],
      "payable": false,
      "stateMutability": "nonpayable",
      "type": "constructor"
    },
    {
      "anonymous": false,
      "inputs": [
        {
          "indexed": false,
          "name": "_attendee",
          "type": "address"
        }
      ],
      "name": "Signed",
      "type": "event"
    },
    {
      "constant": false,
      "inputs": [],
      "name": "signRegister",
      "outputs": [],
      "payable": false,
      "stateMutability": "nonpayable",
      "type": "function"
    },
    {
      "constant": false,
      "inputs": [],
      "name": "signRegisterPayed",
      "outputs": [],
      "payable": true,
      "stateMutability": "payable",
      "type": "function"
    },
    {
      "constant": true,
      "inputs": [
        {
          "name": "myAddress",
          "type": "address"
        }
      ],
      "name": "checkRegister",
      "outputs": [
        {
          "name": "",
          "type": "bool"
        }
      ],
      "payable": false,
      "stateMutability": "view",
      "type": "function"
    }
  ],
  "bytecode": "0x608060405234801561001057600080fd5b506040516020806102d583398101806040528101908080519060200190929190505050806000819055505061028b8061004a6000396000f300608060405260043610610057576000357c0100000000000000000000000000000000000000000000000000000000900463ffffffff168063f494a6761461005c578063f5d8bcb414610073578063f8126568146100ce575b600080fd5b34801561006857600080fd5b506100716100d8565b005b34801561007f57600080fd5b506100b4600480360381019080803573ffffffffffffffffffffffffffffffffffffffff169060200190929190505050610137565b604051808215151515815260200191505060405180910390f35b6100d661018d565b005b600033905060018060008373ffffffffffffffffffffffffffffffffffffffff1673ffffffffffffffffffffffffffffffffffffffff16815260200190815260200160002060006101000a81548160ff02191690831515021790555050565b6000600160008373ffffffffffffffffffffffffffffffffffffffff1673ffffffffffffffffffffffffffffffffffffffff16815260200190815260200160002060009054906101000a900460ff169050919050565b60008054341015151561019f57600080fd5b33905060018060008373ffffffffffffffffffffffffffffffffffffffff1673ffffffffffffffffffffffffffffffffffffffff16815260200190815260200160002060006101000a81548160ff0219169083151502179055507f568aebae0f7dc6c96727fb4cdfdf7add45fec43fffd69b3fa71ea0898a27f8cc33604051808273ffffffffffffffffffffffffffffffffffffffff1673ffffffffffffffffffffffffffffffffffffffff16815260200191505060405180910390a1505600a165627a7a7230582086e630562bb39b075155e6673279f914bcd076013c66cedea521925ee09588270029",
  "source": "pragma solidity ^0.4.25;\n// Solidity version 0.4.25 is the latest and greatest and there are probably\n// some breaking changes that I'm unaware of. If you happen to spot any, let\n// me know via a github issue.\n\n// I usually write the contract in remix and test and debug there,\n// then copy it into truffle to build the front-end of the DApp.\n// Remix: https://remix.ethereum.org\n\n// Sign the digital register for the Cryptosoc workshops\ncontract WorkshopRegister {\n  uint workshopCost;\n\n    // a mapping is an efficient data structure that can map every possible\n  // thing to something else - in this case, addresses to booleans\n  mapping(address => bool) private register;\n\n  // An event that will emit when someone has attended\n  event Signed(address _attendee);\n\n  // A constructor that sets up the Workshop parameters\n  // in this case, the cost of the workshop\n  constructor (uint costInEther) public {\n    workshopCost = costInEther;\n  }\n\n  // Add your address as your signature to the register\n  function signRegister() public {\n    address signature = msg.sender;\n    register[signature] = true;\n  }\n\n\n  // Add your address as your signature to the register for a payed workshop\n  function signRegisterPayed() public payable {\n    require(msg.value >= workshopCost);\n\n    address signature = msg.sender;\n    register[signature] = true;\n\n    // Emit an event on success\n    emit Signed(msg.sender);\n  }\n\n\n  // Check if you have successfully signed the register\n  function checkRegister(address myAddress) public view returns (bool) {\n    return register[myAddress];\n  }\n\n\n  // A payable function that would tip the contract i.e. no-one\n  // This has nothing to do with the register and is added\n  // for additional functionality. There is currently nothing connected\n  // to this on the front end either.\n\n  // function tip() public payable {\n  //   Implement this\n  // }\n}\n",
  "sourcePath": "/home/abner/Desktop/012 - Octavo Semestre/Technologies & Freedom/Tech/lab02/CryptoSoc-Workshop/contracts/WorkshopRegister.sol",
  "compiler": {
    "name": "solc",
    "version": "0.4.25+commit.59dbf8f1.Emscripten.clang"
  },
  "schemaVersion": "3.4.3",
  "updatedAt": "2021-10-09T23:31:22.238Z",
  "networkType": "ethereum",
  "devdoc": {
    "methods": {}
  },
  "userdoc": {
    "methods": {}
  }
}